{
  "contractName": "Voting",
  "abi": [
    {
      "anonymous": false,
      "inputs": [
        {
          "indexed": true,
          "internalType": "address",
          "name": "previousOwner",
          "type": "address"
        },
        {
          "indexed": true,
          "internalType": "address",
          "name": "newOwner",
          "type": "address"
        }
      ],
      "name": "OwnershipTransferred",
      "type": "event"
    },
    {
      "anonymous": false,
      "inputs": [
        {
          "indexed": false,
          "internalType": "uint16",
          "name": "proposalId",
          "type": "uint16"
        }
      ],
      "name": "ProposalRegistered",
      "type": "event"
    },
    {
      "anonymous": false,
      "inputs": [],
      "name": "ProposalsRegistrationEnded",
      "type": "event"
    },
    {
      "anonymous": false,
      "inputs": [],
      "name": "ProposalsRegistrationStarted",
      "type": "event"
    },
    {
      "anonymous": false,
      "inputs": [
        {
          "indexed": false,
          "internalType": "address",
          "name": "voter",
          "type": "address"
        },
        {
          "indexed": false,
          "internalType": "uint16",
          "name": "proposalId",
          "type": "uint16"
        }
      ],
      "name": "Voted",
      "type": "event"
    },
    {
      "anonymous": false,
      "inputs": [
        {
          "indexed": false,
          "internalType": "address",
          "name": "voterAddress",
          "type": "address"
        }
      ],
      "name": "VoterRegistered",
      "type": "event"
    },
    {
      "anonymous": false,
      "inputs": [],
      "name": "VotesTallied",
      "type": "event"
    },
    {
      "anonymous": false,
      "inputs": [],
      "name": "VotingSessionEnded",
      "type": "event"
    },
    {
      "anonymous": false,
      "inputs": [],
      "name": "VotingSessionStarted",
      "type": "event"
    },
    {
      "anonymous": false,
      "inputs": [
        {
          "indexed": false,
          "internalType": "enum Voting.WorkflowStatus",
          "name": "previousStatus",
          "type": "uint8"
        },
        {
          "indexed": false,
          "internalType": "enum Voting.WorkflowStatus",
          "name": "newStatus",
          "type": "uint8"
        }
      ],
      "name": "WorkflowStatusChange",
      "type": "event"
    },
    {
      "inputs": [
        {
          "internalType": "uint256",
          "name": "",
          "type": "uint256"
        }
      ],
      "name": "_proposallist",
      "outputs": [
        {
          "internalType": "string",
          "name": "description",
          "type": "string"
        },
        {
          "internalType": "uint32",
          "name": "voteCount",
          "type": "uint32"
        }
      ],
      "stateMutability": "view",
      "type": "function",
      "constant": true
    },
    {
      "inputs": [
        {
          "internalType": "address",
          "name": "",
          "type": "address"
        }
      ],
      "name": "_voterlist",
      "outputs": [
        {
          "internalType": "bool",
          "name": "isRegistered",
          "type": "bool"
        },
        {
          "internalType": "bool",
          "name": "hasVoted",
          "type": "bool"
        },
        {
          "internalType": "uint16",
          "name": "votedProposalId",
          "type": "uint16"
        }
      ],
      "stateMutability": "view",
      "type": "function",
      "constant": true
    },
    {
      "inputs": [],
      "name": "_workflow",
      "outputs": [
        {
          "internalType": "enum Voting.WorkflowStatus",
          "name": "",
          "type": "uint8"
        }
      ],
      "stateMutability": "view",
      "type": "function",
      "constant": true
    },
    {
      "inputs": [],
      "name": "owner",
      "outputs": [
        {
          "internalType": "address",
          "name": "",
          "type": "address"
        }
      ],
      "stateMutability": "view",
      "type": "function",
      "constant": true
    },
    {
      "inputs": [],
      "name": "proposalId",
      "outputs": [
        {
          "internalType": "uint16",
          "name": "",
          "type": "uint16"
        }
      ],
      "stateMutability": "view",
      "type": "function",
      "constant": true
    },
    {
      "inputs": [],
      "name": "renounceOwnership",
      "outputs": [],
      "stateMutability": "nonpayable",
      "type": "function"
    },
    {
      "inputs": [
        {
          "internalType": "address",
          "name": "newOwner",
          "type": "address"
        }
      ],
      "name": "transferOwnership",
      "outputs": [],
      "stateMutability": "nonpayable",
      "type": "function"
    },
    {
      "inputs": [
        {
          "internalType": "address",
          "name": "_address",
          "type": "address"
        }
      ],
      "name": "RegisterVoter",
      "outputs": [],
      "stateMutability": "nonpayable",
      "type": "function"
    },
    {
      "inputs": [
        {
          "internalType": "string",
          "name": "_description",
          "type": "string"
        }
      ],
      "name": "RegisterProposal",
      "outputs": [],
      "stateMutability": "nonpayable",
      "type": "function"
    },
    {
      "inputs": [
        {
          "internalType": "uint16",
          "name": "_proposalId",
          "type": "uint16"
        }
      ],
      "name": "AddVote",
      "outputs": [],
      "stateMutability": "nonpayable",
      "type": "function"
    },
    {
      "inputs": [],
      "name": "WinningProposal",
      "outputs": [],
      "stateMutability": "nonpayable",
      "type": "function"
    },
    {
      "inputs": [],
      "name": "Winner",
      "outputs": [
        {
          "components": [
            {
              "internalType": "string",
              "name": "description",
              "type": "string"
            },
            {
              "internalType": "uint32",
              "name": "voteCount",
              "type": "uint32"
            }
          ],
          "internalType": "struct Voting.Proposal",
          "name": "",
          "type": "tuple"
        }
      ],
      "stateMutability": "view",
      "type": "function",
      "constant": true
    },
    {
      "inputs": [
        {
          "internalType": "uint16",
          "name": "_proposalId",
          "type": "uint16"
        }
      ],
      "name": "GetProposal",
      "outputs": [
        {
          "components": [
            {
              "internalType": "string",
              "name": "description",
              "type": "string"
            },
            {
              "internalType": "uint32",
              "name": "voteCount",
              "type": "uint32"
            }
          ],
          "internalType": "struct Voting.Proposal",
          "name": "",
          "type": "tuple"
        }
      ],
      "stateMutability": "view",
      "type": "function",
      "constant": true
    },
    {
      "inputs": [],
      "name": "ProposalStart",
      "outputs": [],
      "stateMutability": "nonpayable",
      "type": "function"
    },
    {
      "inputs": [],
      "name": "ProposalEnd",
      "outputs": [],
      "stateMutability": "nonpayable",
      "type": "function"
    },
    {
      "inputs": [],
      "name": "VoteStart",
      "outputs": [],
      "stateMutability": "nonpayable",
      "type": "function"
    },
    {
      "inputs": [],
      "name": "VoteEnd",
      "outputs": [],
      "stateMutability": "nonpayable",
      "type": "function"
    }
  ],
  "bytecode": "0x60806040526003805462ffff001916905534801561001c57600080fd5b506000610027610076565b600080546001600160a01b0319166001600160a01b0383169081178255604051929350917f8be0079c531659141344cd1fd0a4f28419497f9722a3daafe3b4186f6b6457e0908290a35061007a565b3390565b61162a806100896000396000f3fe608060405234801561001057600080fd5b506004361061010b5760003560e01c8063715018a6116100a25780639ee1ed7e116100715780639ee1ed7e146101e9578063b1a9d2f8146101f1578063b2b98ed214610204578063bfdbc3561461020c578063f2fde38b1461022e5761010b565b8063715018a6146101bc5780637efaf425146101c45780638da5cb5b146101cc5780639ab8b3d1146101e15761010b565b80632dfca445116100de5780632dfca4451461016957806337320ee61461017e5780634c9aa990146101865780636bc8e452146101a75761010b565b806315fe6f1b146101105780631a2cd736146101255780631e14042814610138578063282cca2514610140575b600080fd5b61012361011e36600461109d565b610241565b005b610123610133366004611160565b61039b565b6101236104d2565b61015361014e366004611160565b6105c3565b6040516101609190611527565b60405180910390f35b61017161069a565b604051610160919061155f565b6101236106a9565b610199610194366004611182565b61079e565b60405161016092919061126f565b6101af61085a565b6040516101609190611240565b610123610863565b61012361090f565b6101d4610aa1565b60405161016091906111f3565b610123610ab0565b610123610ba5565b6101236101ff3660046110cb565b610c96565b610153610da1565b61021f61021a36600461109d565b610eb3565b60405161016093929190611224565b61012361023c36600461109d565b610ede565b610249610fe0565b6001600160a01b031661025a610aa1565b6001600160a01b0316146102a3576040805162461bcd60e51b815260206004820181905260248201526000805160206115b5833981519152604482015290519081900360640190fd5b600060035460ff1660058111156102b657fe5b146102dc5760405162461bcd60e51b81526004016102d39061135e565b60405180910390fd5b6001600160a01b0381166103025760405162461bcd60e51b81526004016102d390611493565b6001600160a01b03811660009081526001602052604090205460ff161561033b5760405162461bcd60e51b81526004016102d3906113a1565b6001600160a01b038116600090815260016020819052604091829020805460ff19169091179055517fb6be2187d059cc2a55fe29e0e503b566e1e0f8c8780096e185429350acffd3dd906103909083906111f3565b60405180910390a150565b6003805460ff1660058111156103ad57fe5b146103ca5760405162461bcd60e51b81526004016102d390611411565b3360009081526001602081905260409091205460ff161515146103ff5760405162461bcd60e51b81526004016102d390611297565b33600090815260016020526040902054610100900460ff16156104345760405162461bcd60e51b81526004016102d39061145c565b60028161ffff168154811061044557fe5b6000918252602080832060016002909302018201805463ffffffff80821685011663ffffffff1990911617905533808452919052604091829020805461ff001961ffff8616620100000263ffff000019909216919091171661010017905590517f2941e36a18e27644e8ea10bad396659ac866fd7a18a75015d088fc148e24d85491610390918490611207565b6104da610fe0565b6001600160a01b03166104eb610aa1565b6001600160a01b031614610534576040805162461bcd60e51b815260206004820181905260248201526000805160206115b5833981519152604482015290519081900360640190fd5b600260035460ff16600581111561054757fe5b146105645760405162461bcd60e51b81526004016102d3906114dc565b6003805460ff1916811781556040516000805160206115d5833981519152916105909160029190611254565b60405180910390a16040517f1b8e19a458c1bcd88553332c518cc5c4e2d5793e712ee766d4f1c14f672ef1f590600090a1565b6105cb610fe4565b60028261ffff16815481106105dc57fe5b60009182526020918290206040805160029384029092018054600181161561010002600019011693909304601f810185900490940282016060908101825290820184815291938492918491908401828280156106795780601f1061064e57610100808354040283529160200191610679565b820191906000526020600020905b81548152906001019060200180831161065c57829003601f168201915b50505091835250506001919091015463ffffffff1660209091015292915050565b600354610100900461ffff1681565b6106b1610fe0565b6001600160a01b03166106c2610aa1565b6001600160a01b03161461070b576040805162461bcd60e51b815260206004820181905260248201526000805160206115b5833981519152604482015290519081900360640190fd5b600160035460ff16600581111561071e57fe5b1461073b5760405162461bcd60e51b81526004016102d3906112ce565b6003805460ff191660029081179091556040516000805160206115d58339815191529161076b9160019190611254565b60405180910390a16040517f240cb87b2e4df4c318e72bd714d45a9cad60249e883ff56b1fffd83a4595a8fa90600090a1565b600281815481106107ae57600080fd5b60009182526020918290206002918202018054604080516001831615610100026000190190921693909304601f8101859004850282018501909352828152909350918391908301828280156108445780601f1061081957610100808354040283529160200191610844565b820191906000526020600020905b81548152906001019060200180831161082757829003601f168201915b5050506001909301549192505063ffffffff1682565b60035460ff1681565b61086b610fe0565b6001600160a01b031661087c610aa1565b6001600160a01b0316146108c5576040805162461bcd60e51b815260206004820181905260248201526000805160206115b5833981519152604482015290519081900360640190fd5b600080546040516001600160a01b03909116907f8be0079c531659141344cd1fd0a4f28419497f9722a3daafe3b4186f6b6457e0908390a3600080546001600160a01b0319169055565b610917610fe0565b6001600160a01b0316610928610aa1565b6001600160a01b031614610971576040805162461bcd60e51b815260206004820181905260248201526000805160206115b5833981519152604482015290519081900360640190fd5b6000600460035460ff16600581111561098657fe5b146109a35760405162461bcd60e51b81526004016102d3906112ce565b60005b60025461ffff82161015610a3c578163ffffffff1660028261ffff16815481106109cc57fe5b600091825260209091206001600290920201015463ffffffff161115610a345760028161ffff16815481106109fd57fe5b60009182526020909120600290910201600101546003805464ffff0000001916630100000061ffff85160217905563ffffffff1691505b6001016109a6565b506003805460ff191660059081179091556040516000805160206115d583398151915291610a6d9160049190611254565b60405180910390a16040517f0e5e95ff8725ab3e7a4b6b59998a4c344c2aa8d1485f5e60cb7f337768e6134790600090a150565b6000546001600160a01b031690565b610ab8610fe0565b6001600160a01b0316610ac9610aa1565b6001600160a01b031614610b12576040805162461bcd60e51b815260206004820181905260248201526000805160206115b5833981519152604482015290519081900360640190fd5b600060035460ff166005811115610b2557fe5b14610b425760405162461bcd60e51b81526004016102d39061135e565b6003805460ff191660019081179091556040516000805160206115d583398151915291610b729160009190611254565b60405180910390a16040517f344c25562921d075a298d34b6dd1fd00d36ff293974539dfd4a8c625d9f0064c90600090a1565b610bad610fe0565b6001600160a01b0316610bbe610aa1565b6001600160a01b031614610c07576040805162461bcd60e51b815260206004820181905260248201526000805160206115b5833981519152604482015290519081900360640190fd5b6003805460ff166005811115610c1957fe5b14610c365760405162461bcd60e51b81526004016102d3906112ce565b6003805460ff1916600490811782556040516000805160206115d583398151915292610c63929091611254565b60405180910390a16040517fc379d349a6301baf50fb2f98d829f4ae10b1cdb7c66f4e4d8117302df7b8cd4c90600090a1565b600160035460ff166005811115610ca957fe5b14610cc65760405162461bcd60e51b81526004016102d390611312565b6040805180820190915281815260006020808301829052600280546001810182559281905283518051939091027f405787fa12a823e0f2b7631cc41b3ba8828b3321ca811111fa75cd3aa3bb5ace0192610d239284920190610ffc565b50602091909101516001918201805463ffffffff191663ffffffff9092169190911790556003805462ffff001981166101009182900461ffff9081169094018416820217918290556040517f3a4c611b68899d706a17379718e0e71bc4fbd91ba8e193b04e9876719d2d86039361039093929092049091169061155f565b610da9610fe4565b600560035460ff166005811115610dbc57fe5b14610dd95760405162461bcd60e51b81526004016102d3906113e3565b6003546002805490916301000000900461ffff16908110610df657fe5b60009182526020918290206040805160029384029092018054600181161561010002600019011693909304601f81018590049094028201606090810182529082018481529193849291849190840182828015610e935780601f10610e6857610100808354040283529160200191610e93565b820191906000526020600020905b815481529060010190602001808311610e7657829003601f168201915b50505091835250506001919091015463ffffffff16602090910152905090565b60016020526000908152604090205460ff8082169161010081049091169062010000900461ffff1683565b610ee6610fe0565b6001600160a01b0316610ef7610aa1565b6001600160a01b031614610f40576040805162461bcd60e51b815260206004820181905260248201526000805160206115b5833981519152604482015290519081900360640190fd5b6001600160a01b038116610f855760405162461bcd60e51b815260040180806020018281038252602681526020018061156f6026913960400191505060405180910390fd5b600080546040516001600160a01b03808516939216917f8be0079c531659141344cd1fd0a4f28419497f9722a3daafe3b4186f6b6457e091a3600080546001600160a01b0319166001600160a01b0392909216919091179055565b3390565b60408051808201909152606081526000602082015290565b828054600181600116156101000203166002900490600052602060002090601f0160209004810192826110325760008555611078565b82601f1061104b57805160ff1916838001178555611078565b82800160010185558215611078579182015b8281111561107857825182559160200191906001019061105d565b50611084929150611088565b5090565b5b808211156110845760008155600101611089565b6000602082840312156110ae578081fd5b81356001600160a01b03811681146110c4578182fd5b9392505050565b600060208083850312156110dd578182fd5b823567ffffffffffffffff808211156110f4578384fd5b818501915085601f830112611107578384fd5b81358181111561111357fe5b604051601f8201601f191681018501838111828210171561113057fe5b6040528181528382018501881015611146578586fd5b818585018683013790810190930193909352509392505050565b600060208284031215611171578081fd5b813561ffff811681146110c4578182fd5b600060208284031215611193578081fd5b5035919050565b600681106111a457fe5b9052565b60008151808452815b818110156111cd576020818501810151868301820152016111b1565b818111156111de5782602083870101525b50601f01601f19169290920160200192915050565b6001600160a01b0391909116815260200190565b6001600160a01b0392909216825261ffff16602082015260400190565b9215158352901515602083015261ffff16604082015260600190565b6020810161124e828461119a565b92915050565b60408101611262828561119a565b6110c4602083018461119a565b60006040825261128260408301856111a8565b905063ffffffff831660208301529392505050565b6020808252601b908201527f54686520766f746572206973206e6f7420726567697374657265640000000000604082015260600190565b602080825260369082015260008051602061159583398151915260408201527508189948159bdd1a5b99d4d95cdcda5bdb915b99195960521b606082015260800190565b60208082526040908201819052600080516020611595833981519152908201527f2062652050726f706f73616c73526567697374726174696f6e53746172746564606082015260800190565b6020808252603590820152600080516020611595833981519152604082015274206265205265676973746572696e67566f7465727360581b606082015260800190565b60208082526022908201527f54686973206164647265737320697320616c7265616479207265676973746572604082015261195960f21b606082015260800190565b602080825260149082015273526573756c74206973206e6f742072656164792160601b604082015260600190565b602080825260389082015260008051602061159583398151915260408201527f20626520566f74696e6753657373696f6e537461727465640000000000000000606082015260800190565b6020808252601b908201527f54686520766f7465722068617320616c726561647920766f7465640000000000604082015260600190565b60208082526029908201527f616464726573732069732020302120506c6561736520636865636b2061646472604082015268195cdcc81a5b9c1d5d60ba1b606082015260800190565b6020808252603e9082015260008051602061159583398151915260408201527f2062652050726f706f73616c73526567697374726174696f6e456e6465640000606082015260800190565b60006020825282516040602084015261154360608401826111a8565b905063ffffffff60208501511660408401528091505092915050565b61ffff9190911681526020019056fe4f776e61626c653a206e6577206f776e657220697320746865207a65726f206164647265737354686520737461747573206973206e6f7420636f7272656374203a204d7573744f776e61626c653a2063616c6c6572206973206e6f7420746865206f776e65720a97a4ee45751e2abf3e4fc8946939630b11b371ea8ae39ccdc3056e98f5cc3fa264697066735822122082da60b8521de9b86f839fa3c0d3bbd69ec9f918c7fc8a7c8daaf10f5fe9dedd64736f6c63430007040033",
  "immutableReferences": {},
  "source": "//SPDX-License-Identifier: UNLICENSED\npragma solidity ^0.7.4;\npragma experimental ABIEncoderV2;\n\nimport \"@openzeppelin/contracts/access/Ownable.sol\";\n\n/**\n * @title Voting contract\n * @author Mohamed Jeremy Cedric\n */\ncontract Voting is Ownable {\n    enum WorkflowStatus {\n        RegisteringVoters,\n        ProposalsRegistrationStarted,\n        ProposalsRegistrationEnded,\n        VotingSessionStarted,\n        VotingSessionEnded,\n        VotesTallied\n    }\n\n    struct Voter {\n        bool isRegistered;\n        bool hasVoted;\n        uint16 votedProposalId;\n    }\n\n    struct Proposal {\n        string description;\n        uint32 voteCount;\n    }\n\n    mapping(address => Voter) public _voterlist;\n\n    Proposal[] public _proposallist;\n    WorkflowStatus public _workflow;\n\n    uint16 public proposalId = 0;\n    uint16 private _winningProposalId;\n\n    event VoterRegistered(address voterAddress);\n    event ProposalsRegistrationStarted();\n    event ProposalsRegistrationEnded();\n    event ProposalRegistered(uint16 proposalId);\n    event VotingSessionStarted();\n    event VotingSessionEnded();\n    event Voted(address voter, uint16 proposalId);\n    event VotesTallied();\n    event WorkflowStatusChange(\n        WorkflowStatus previousStatus,\n        WorkflowStatus newStatus\n    );\n\n    /**\n     * @dev Register voter in the mapping _voterlist\n     * @param _address Voter address\n     */\n    function RegisterVoter(address _address) public onlyOwner {\n        require(\n            _workflow == WorkflowStatus.RegisteringVoters,\n            \"The status is not correct : Must be RegisteringVoters\"\n        );\n        require(\n            _address != address(0),\n            \"address is  0! Please check address input\"\n        );\n        require(\n            _voterlist[_address].isRegistered == false,\n            \"This address is already registered\"\n        );\n        _voterlist[_address].isRegistered = true;\n        emit VoterRegistered(_address);\n    }\n\n    /**\n     * @dev Register a new proposal\n     * @param _description The proposal description\n     */\n    function RegisterProposal(string memory _description) public {\n        require(\n            _workflow == WorkflowStatus.ProposalsRegistrationStarted,\n            \"The status is not correct : Must be ProposalsRegistrationStarted\"\n        );\n        _proposallist.push(Proposal(_description, 0));\n        proposalId++;\n        emit ProposalRegistered(proposalId);\n    }\n\n    /**\n     * @dev Add a vote in favor of this _proposalId\n     * @param _proposalId Proposal identifier\n     */\n    function AddVote(uint16 _proposalId) public {\n        require(\n            _workflow == WorkflowStatus.VotingSessionStarted,\n            \"The status is not correct : Must be VotingSessionStarted\"\n        );\n        require(\n            _voterlist[msg.sender].isRegistered == true,\n            \"The voter is not registered\"\n        );\n        require(\n            _voterlist[msg.sender].hasVoted == false,\n            \"The voter has already voted\"\n        );\n        _proposallist[_proposalId].voteCount++;\n\n        _voterlist[msg.sender].votedProposalId = _proposalId;\n        _voterlist[msg.sender].hasVoted = true;\n\n        emit Voted(msg.sender, _proposalId);\n    }\n\n    /**\n     * @dev Get the winning proposal\n     * We take the the first one in the list in case of equality\n     * Set _winningProposalId with the index of winning _proposallist\n     */\n    function WinningProposal() public onlyOwner {\n        uint32 _winningVoteCount = 0;\n\n        require(\n            _workflow == WorkflowStatus.VotingSessionEnded,\n            \"The status is not correct : Must be VotingSessionEnded\"\n        );\n        for (uint16 i = 0; i < _proposallist.length; i++) {\n            if (_proposallist[i].voteCount > _winningVoteCount) {\n                _winningVoteCount = _proposallist[i].voteCount;\n                _winningProposalId = i;\n            }\n        }\n\n        _workflow = WorkflowStatus.VotesTallied;\n        emit WorkflowStatusChange(\n            WorkflowStatus.VotingSessionEnded,\n            WorkflowStatus.VotesTallied\n        );\n        emit VotesTallied();\n    }\n\n    /**\n     * @dev Get proposal winner information\n     * @return _proposallist[_winningProposalId] Proposal proposal\n     */\n    function Winner() public view returns (Proposal memory) {\n        require(\n            _workflow == WorkflowStatus.VotesTallied,\n            \"Result is not ready!\"\n        );\n        return _proposallist[_winningProposalId];\n    }\n\n    /**\n     * @dev Get proposal by id\n     * @return Proposal proposal\n     */\n    function GetProposal(uint16 _proposalId)\n        public\n        view\n        returns (Proposal memory)\n    {\n        return _proposallist[_proposalId];\n    }\n\n    /**\n     * @dev Start proposal period\n     */\n    function ProposalStart() public onlyOwner {\n        require(\n            _workflow == WorkflowStatus.RegisteringVoters,\n            \"The status is not correct : Must be RegisteringVoters\"\n        );\n        _workflow = WorkflowStatus.ProposalsRegistrationStarted;\n\n        emit WorkflowStatusChange(\n            WorkflowStatus.RegisteringVoters,\n            WorkflowStatus.ProposalsRegistrationStarted\n        );\n        emit ProposalsRegistrationStarted();\n    }\n\n    /**\n     * @dev End proposal period\n     */\n    function ProposalEnd() public onlyOwner {\n        require(\n            _workflow == WorkflowStatus.ProposalsRegistrationStarted,\n            \"The status is not correct : Must be VotingSessionEnded\"\n        );\n        _workflow = WorkflowStatus.ProposalsRegistrationEnded;\n        emit WorkflowStatusChange(\n            WorkflowStatus.ProposalsRegistrationStarted,\n            WorkflowStatus.ProposalsRegistrationEnded\n        );\n        emit ProposalsRegistrationEnded();\n    }\n\n    /**\n     * @dev Start vote period\n     */\n    function VoteStart() public onlyOwner {\n        require(\n            _workflow == WorkflowStatus.ProposalsRegistrationEnded,\n            \"The status is not correct : Must be ProposalsRegistrationEnded\"\n        );\n        _workflow = WorkflowStatus.VotingSessionStarted;\n        emit WorkflowStatusChange(\n            WorkflowStatus.ProposalsRegistrationEnded,\n            WorkflowStatus.VotingSessionStarted\n        );\n        emit VotingSessionStarted();\n    }\n\n    /**\n     * @dev End vote period\n     */\n    function VoteEnd() public onlyOwner {\n        require(\n            _workflow == WorkflowStatus.VotingSessionStarted,\n            \"The status is not correct : Must be VotingSessionEnded\"\n        );\n        _workflow = WorkflowStatus.VotingSessionEnded;\n        emit WorkflowStatusChange(\n            WorkflowStatus.VotingSessionStarted,\n            WorkflowStatus.VotingSessionEnded\n        );\n        emit VotingSessionEnded();\n    }\n}\n",
  "sourcePath": "/Users/magnec/Sites/alyra/voting/contracts/Voting.sol",
  "compiler": {
    "name": "solc",
    "version": "0.7.4+commit.3f05b770.Emscripten.clang"
  },
  "schemaVersion": "3.3.4",
  "updatedAt": "2021-03-19T15:47:34.830Z",
  "networkType": "ethereum",
  "devdoc": {
    "author": "Mohamed Jeremy Cedric",
    "kind": "dev",
    "methods": {
      "AddVote(uint16)": {
        "details": "Add a vote in favor of this _proposalId",
        "params": {
          "_proposalId": "Proposal identifier"
        }
      },
      "GetProposal(uint16)": {
        "details": "Get proposal by id",
        "returns": {
          "_0": "Proposal proposal"
        }
      },
      "ProposalEnd()": {
        "details": "End proposal period"
      },
      "ProposalStart()": {
        "details": "Start proposal period"
      },
      "RegisterProposal(string)": {
        "details": "Register a new proposal",
        "params": {
          "_description": "The proposal description"
        }
      },
      "RegisterVoter(address)": {
        "details": "Register voter in the mapping _voterlist",
        "params": {
          "_address": "Voter address"
        }
      },
      "VoteEnd()": {
        "details": "End vote period"
      },
      "VoteStart()": {
        "details": "Start vote period"
      },
      "Winner()": {
        "details": "Get proposal winner information",
        "returns": {
          "_0": "_proposallist[_winningProposalId] Proposal proposal"
        }
      },
      "WinningProposal()": {
        "details": "Get the winning proposal We take the the first one in the list in case of equality Set _winningProposalId with the index of winning _proposallist"
      },
      "owner()": {
        "details": "Returns the address of the current owner."
      },
      "renounceOwnership()": {
        "details": "Leaves the contract without owner. It will not be possible to call `onlyOwner` functions anymore. Can only be called by the current owner. NOTE: Renouncing ownership will leave the contract without an owner, thereby removing any functionality that is only available to the owner."
      },
      "transferOwnership(address)": {
        "details": "Transfers ownership of the contract to a new account (`newOwner`). Can only be called by the current owner."
      }
    },
    "title": "Voting contract",
    "version": 1
  },
  "userdoc": {
    "kind": "user",
    "methods": {},
    "version": 1
  }
}