{
  "contractName": "Voting",
  "abi": [
    {
      "anonymous": false,
      "inputs": [
        {
          "indexed": true,
          "internalType": "address",
          "name": "previousOwner",
          "type": "address"
        },
        {
          "indexed": true,
          "internalType": "address",
          "name": "newOwner",
          "type": "address"
        }
      ],
      "name": "OwnershipTransferred",
      "type": "event"
    },
    {
      "anonymous": false,
      "inputs": [
        {
          "indexed": false,
          "internalType": "uint16",
          "name": "proposalId",
          "type": "uint16"
        }
      ],
      "name": "ProposalRegistered",
      "type": "event"
    },
    {
      "anonymous": false,
      "inputs": [],
      "name": "ProposalsRegistrationEnded",
      "type": "event"
    },
    {
      "anonymous": false,
      "inputs": [],
      "name": "ProposalsRegistrationStarted",
      "type": "event"
    },
    {
      "anonymous": false,
      "inputs": [
        {
          "indexed": false,
          "internalType": "address",
          "name": "voter",
          "type": "address"
        },
        {
          "indexed": false,
          "internalType": "uint16",
          "name": "proposalId",
          "type": "uint16"
        }
      ],
      "name": "Voted",
      "type": "event"
    },
    {
      "anonymous": false,
      "inputs": [
        {
          "indexed": false,
          "internalType": "address",
          "name": "voterAddress",
          "type": "address"
        }
      ],
      "name": "VoterRegistered",
      "type": "event"
    },
    {
      "anonymous": false,
      "inputs": [],
      "name": "VotesTallied",
      "type": "event"
    },
    {
      "anonymous": false,
      "inputs": [],
      "name": "VotingSessionEnded",
      "type": "event"
    },
    {
      "anonymous": false,
      "inputs": [],
      "name": "VotingSessionStarted",
      "type": "event"
    },
    {
      "anonymous": false,
      "inputs": [
        {
          "indexed": false,
          "internalType": "enum Voting.WorkflowStatus",
          "name": "previousStatus",
          "type": "uint8"
        },
        {
          "indexed": false,
          "internalType": "enum Voting.WorkflowStatus",
          "name": "newStatus",
          "type": "uint8"
        }
      ],
      "name": "WorkflowStatusChange",
      "type": "event"
    },
    {
      "inputs": [
        {
          "internalType": "uint256",
          "name": "",
          "type": "uint256"
        }
      ],
      "name": "_proposallist",
      "outputs": [
        {
          "internalType": "string",
          "name": "description",
          "type": "string"
        },
        {
          "internalType": "uint32",
          "name": "voteCount",
          "type": "uint32"
        }
      ],
      "stateMutability": "view",
      "type": "function",
      "constant": true
    },
    {
      "inputs": [
        {
          "internalType": "address",
          "name": "",
          "type": "address"
        }
      ],
      "name": "_voterlist",
      "outputs": [
        {
          "internalType": "bool",
          "name": "isRegistered",
          "type": "bool"
        },
        {
          "internalType": "bool",
          "name": "hasVoted",
          "type": "bool"
        },
        {
          "internalType": "uint16",
          "name": "votedProposalId",
          "type": "uint16"
        }
      ],
      "stateMutability": "view",
      "type": "function",
      "constant": true
    },
    {
      "inputs": [
        {
          "internalType": "uint256",
          "name": "",
          "type": "uint256"
        }
      ],
      "name": "_votersAddress",
      "outputs": [
        {
          "internalType": "address",
          "name": "",
          "type": "address"
        }
      ],
      "stateMutability": "view",
      "type": "function",
      "constant": true
    },
    {
      "inputs": [],
      "name": "_workflow",
      "outputs": [
        {
          "internalType": "enum Voting.WorkflowStatus",
          "name": "",
          "type": "uint8"
        }
      ],
      "stateMutability": "view",
      "type": "function",
      "constant": true
    },
    {
      "inputs": [],
      "name": "owner",
      "outputs": [
        {
          "internalType": "address",
          "name": "",
          "type": "address"
        }
      ],
      "stateMutability": "view",
      "type": "function",
      "constant": true
    },
    {
      "inputs": [],
      "name": "proposalId",
      "outputs": [
        {
          "internalType": "uint16",
          "name": "",
          "type": "uint16"
        }
      ],
      "stateMutability": "view",
      "type": "function",
      "constant": true
    },
    {
      "inputs": [],
      "name": "renounceOwnership",
      "outputs": [],
      "stateMutability": "nonpayable",
      "type": "function"
    },
    {
      "inputs": [
        {
          "internalType": "address",
          "name": "newOwner",
          "type": "address"
        }
      ],
      "name": "transferOwnership",
      "outputs": [],
      "stateMutability": "nonpayable",
      "type": "function"
    },
    {
      "inputs": [
        {
          "internalType": "address",
          "name": "_address",
          "type": "address"
        }
      ],
      "name": "RegisterVoter",
      "outputs": [],
      "stateMutability": "nonpayable",
      "type": "function"
    },
    {
      "inputs": [],
      "name": "getVotersAddress",
      "outputs": [
        {
          "internalType": "address[]",
          "name": "",
          "type": "address[]"
        }
      ],
      "stateMutability": "view",
      "type": "function",
      "constant": true
    },
    {
      "inputs": [],
      "name": "getProposalList",
      "outputs": [
        {
          "components": [
            {
              "internalType": "string",
              "name": "description",
              "type": "string"
            },
            {
              "internalType": "uint32",
              "name": "voteCount",
              "type": "uint32"
            }
          ],
          "internalType": "struct Voting.Proposal[]",
          "name": "",
          "type": "tuple[]"
        }
      ],
      "stateMutability": "view",
      "type": "function",
      "constant": true
    },
    {
      "inputs": [
        {
          "internalType": "string",
          "name": "_description",
          "type": "string"
        }
      ],
      "name": "RegisterProposal",
      "outputs": [],
      "stateMutability": "nonpayable",
      "type": "function"
    },
    {
      "inputs": [
        {
          "internalType": "uint16",
          "name": "_proposalId",
          "type": "uint16"
        }
      ],
      "name": "AddVote",
      "outputs": [],
      "stateMutability": "nonpayable",
      "type": "function"
    },
    {
      "inputs": [],
      "name": "WinningProposal",
      "outputs": [],
      "stateMutability": "nonpayable",
      "type": "function"
    },
    {
      "inputs": [],
      "name": "Winner",
      "outputs": [
        {
          "components": [
            {
              "internalType": "string",
              "name": "description",
              "type": "string"
            },
            {
              "internalType": "uint32",
              "name": "voteCount",
              "type": "uint32"
            }
          ],
          "internalType": "struct Voting.Proposal",
          "name": "",
          "type": "tuple"
        }
      ],
      "stateMutability": "view",
      "type": "function",
      "constant": true
    },
    {
      "inputs": [
        {
          "internalType": "uint16",
          "name": "_proposalId",
          "type": "uint16"
        }
      ],
      "name": "GetProposal",
      "outputs": [
        {
          "components": [
            {
              "internalType": "string",
              "name": "description",
              "type": "string"
            },
            {
              "internalType": "uint32",
              "name": "voteCount",
              "type": "uint32"
            }
          ],
          "internalType": "struct Voting.Proposal",
          "name": "",
          "type": "tuple"
        }
      ],
      "stateMutability": "view",
      "type": "function",
      "constant": true
    },
    {
      "inputs": [],
      "name": "ProposalStart",
      "outputs": [],
      "stateMutability": "nonpayable",
      "type": "function"
    },
    {
      "inputs": [],
      "name": "ProposalEnd",
      "outputs": [],
      "stateMutability": "nonpayable",
      "type": "function"
    },
    {
      "inputs": [],
      "name": "VoteStart",
      "outputs": [],
      "stateMutability": "nonpayable",
      "type": "function"
    },
    {
      "inputs": [],
      "name": "VoteEnd",
      "outputs": [],
      "stateMutability": "nonpayable",
      "type": "function"
    }
  ],
  "bytecode": "0x60806040526004805462ffff001916905534801561001c57600080fd5b506000610027610076565b600080546001600160a01b0319166001600160a01b0383169081178255604051929350917f8be0079c531659141344cd1fd0a4f28419497f9722a3daafe3b4186f6b6457e0908290a35061007a565b3390565b611964806100896000396000f3fe608060405234801561001057600080fd5b506004361061012c5760003560e01c8063715018a6116100ad578063b1a9d2f811610071578063b1a9d2f81461023a578063b2b98ed21461024d578063bfdbc35614610255578063e19f154114610277578063f2fde38b1461028c5761012c565b8063715018a6146102125780637efaf4251461021a5780638da5cb5b146102225780639ab8b3d11461022a5780639ee1ed7e146102325761012c565b8063346750f3116100f4578063346750f31461019f57806337320ee6146101b45780634c9aa990146101bc5780636bc8e452146101dd5780636e64a97c146101f25761012c565b806315fe6f1b146101315780631a2cd736146101465780631e14042814610159578063282cca25146101615780632dfca4451461018a575b600080fd5b61014461013f366004611320565b61029f565b005b6101446101543660046113e3565b610437565b61014461056f565b61017461016f3660046113e3565b610664565b6040516101819190611886565b60405180910390f35b61019261073b565b6040516101819190611899565b6101a761074a565b6040516101819190611523565b610144610843565b6101cf6101ca366004611405565b610938565b6040516101819291906115ce565b6101e56109f4565b604051610181919061159f565b610205610200366004611405565b6109fd565b60405161018191906114a5565b610144610a27565b610144610ad3565b610205610c61565b610144610c70565b610144610d65565b61014461024836600461134e565b610e56565b610174610f60565b610268610263366004611320565b611072565b60405161018193929190611583565b61027f61109d565b60405161018191906114d6565b61014461029a366004611320565b611161565b6102a7611263565b6001600160a01b03166102b8610c61565b6001600160a01b031614610301576040805162461bcd60e51b815260206004820181905260248201526000805160206118ef833981519152604482015290519081900360640190fd5b600060045460ff16600581111561031457fe5b1461033a5760405162461bcd60e51b8152600401610331906116bd565b60405180910390fd5b6001600160a01b0381166103605760405162461bcd60e51b8152600401610331906117f2565b6001600160a01b03811660009081526001602052604090205460ff16156103995760405162461bcd60e51b815260040161033190611700565b6001600160a01b0381166000818152600160208190526040808320805460ff1916831790556002805492830181559092527f405787fa12a823e0f2b7631cc41b3ba8828b3321ca811111fa75cd3aa3bb5ace0180546001600160a01b031916909217909155517fb6be2187d059cc2a55fe29e0e503b566e1e0f8c8780096e185429350acffd3dd9061042c9083906114a5565b60405180910390a150565b600360045460ff16600581111561044a57fe5b146104675760405162461bcd60e51b815260040161033190611770565b3360009081526001602081905260409091205460ff1615151461049c5760405162461bcd60e51b8152600401610331906115f6565b33600090815260016020526040902054610100900460ff16156104d15760405162461bcd60e51b8152600401610331906117bb565b60038161ffff16815481106104e257fe5b6000918252602080832060016002909302018201805463ffffffff80821685011663ffffffff1990911617905533808452919052604091829020805461ff001961ffff8616620100000263ffff000019909216919091171661010017905590517f2941e36a18e27644e8ea10bad396659ac866fd7a18a75015d088fc148e24d8549161042c9184906114b9565b610577611263565b6001600160a01b0316610588610c61565b6001600160a01b0316146105d1576040805162461bcd60e51b815260206004820181905260248201526000805160206118ef833981519152604482015290519081900360640190fd5b600260045460ff1660058111156105e457fe5b146106015760405162461bcd60e51b81526004016103319061183b565b6004805460ff1916600390811790915560405160008051602061190f8339815191529161063191600291906115b3565b60405180910390a16040517f1b8e19a458c1bcd88553332c518cc5c4e2d5793e712ee766d4f1c14f672ef1f590600090a1565b61066c611267565b60038261ffff168154811061067d57fe5b60009182526020918290206040805160029384029092018054600181161561010002600019011693909304601f8101859004909402820160609081018252908201848152919384929184919084018282801561071a5780601f106106ef5761010080835404028352916020019161071a565b820191906000526020600020905b8154815290600101906020018083116106fd57829003601f168201915b50505091835250506001919091015463ffffffff1660209091015292915050565b600454610100900461ffff1681565b60606003805480602002602001604051908101604052809291908181526020016000905b8282101561083a5760008481526020908190206040805160028681029093018054600181161561010002600019011693909304601f8101859004909402810160609081018352918101848152909384928491908401828280156108125780601f106107e757610100808354040283529160200191610812565b820191906000526020600020905b8154815290600101906020018083116107f557829003601f168201915b505050918352505060019182015463ffffffff1660209182015291835292909201910161076e565b50505050905090565b61084b611263565b6001600160a01b031661085c610c61565b6001600160a01b0316146108a5576040805162461bcd60e51b815260206004820181905260248201526000805160206118ef833981519152604482015290519081900360640190fd5b600160045460ff1660058111156108b857fe5b146108d55760405162461bcd60e51b81526004016103319061162d565b6004805460ff1916600290811790915560405160008051602061190f8339815191529161090591600191906115b3565b60405180910390a16040517f240cb87b2e4df4c318e72bd714d45a9cad60249e883ff56b1fffd83a4595a8fa90600090a1565b6003818154811061094857600080fd5b60009182526020918290206002918202018054604080516001831615610100026000190190921693909304601f8101859004850282018501909352828152909350918391908301828280156109de5780601f106109b3576101008083540402835291602001916109de565b820191906000526020600020905b8154815290600101906020018083116109c157829003601f168201915b5050506001909301549192505063ffffffff1682565b60045460ff1681565b60028181548110610a0d57600080fd5b6000918252602090912001546001600160a01b0316905081565b610a2f611263565b6001600160a01b0316610a40610c61565b6001600160a01b031614610a89576040805162461bcd60e51b815260206004820181905260248201526000805160206118ef833981519152604482015290519081900360640190fd5b600080546040516001600160a01b03909116907f8be0079c531659141344cd1fd0a4f28419497f9722a3daafe3b4186f6b6457e0908390a3600080546001600160a01b0319169055565b610adb611263565b6001600160a01b0316610aec610c61565b6001600160a01b031614610b35576040805162461bcd60e51b815260206004820181905260248201526000805160206118ef833981519152604482015290519081900360640190fd5b60006004805460ff166005811115610b4957fe5b14610b665760405162461bcd60e51b81526004016103319061162d565b60005b60035461ffff82161015610bff578163ffffffff1660038261ffff1681548110610b8f57fe5b600091825260209091206001600290920201015463ffffffff161115610bf75760038161ffff1681548110610bc057fe5b60009182526020909120600290910201600101546004805464ffff0000001916630100000061ffff85160217905563ffffffff1691505b600101610b69565b506004805460ff19166005908117825560405160008051602061190f83398151915292610c2d9290916115b3565b60405180910390a16040517f0e5e95ff8725ab3e7a4b6b59998a4c344c2aa8d1485f5e60cb7f337768e6134790600090a150565b6000546001600160a01b031690565b610c78611263565b6001600160a01b0316610c89610c61565b6001600160a01b031614610cd2576040805162461bcd60e51b815260206004820181905260248201526000805160206118ef833981519152604482015290519081900360640190fd5b600060045460ff166005811115610ce557fe5b14610d025760405162461bcd60e51b8152600401610331906116bd565b6004805460ff1916600190811790915560405160008051602061190f83398151915291610d3291600091906115b3565b60405180910390a16040517f344c25562921d075a298d34b6dd1fd00d36ff293974539dfd4a8c625d9f0064c90600090a1565b610d6d611263565b6001600160a01b0316610d7e610c61565b6001600160a01b031614610dc7576040805162461bcd60e51b815260206004820181905260248201526000805160206118ef833981519152604482015290519081900360640190fd5b600360045460ff166005811115610dda57fe5b14610df75760405162461bcd60e51b81526004016103319061162d565b6004805460ff19168117815560405160008051602061190f83398151915291610e2391600391906115b3565b60405180910390a16040517fc379d349a6301baf50fb2f98d829f4ae10b1cdb7c66f4e4d8117302df7b8cd4c90600090a1565b600160045460ff166005811115610e6957fe5b14610e865760405162461bcd60e51b815260040161033190611671565b60408051808201909152818152600060208083018290526003805460018101825592528251805160029093027fc2575a0e9e593c00f959f8c92f12db2869c3395a3b0502d05e2516446f71f85b0192610ee2928492019061127f565b50602091909101516001918201805463ffffffff191663ffffffff9092169190911790556004805462ffff001981166101009182900461ffff9081169094018416820217918290556040517f3a4c611b68899d706a17379718e0e71bc4fbd91ba8e193b04e9876719d2d86039361042c939290920490911690611899565b610f68611267565b600560045460ff166005811115610f7b57fe5b14610f985760405162461bcd60e51b815260040161033190611742565b6004546003805490916301000000900461ffff16908110610fb557fe5b60009182526020918290206040805160029384029092018054600181161561010002600019011693909304601f810185900490940282016060908101825290820184815291938492918491908401828280156110525780601f1061102757610100808354040283529160200191611052565b820191906000526020600020905b81548152906001019060200180831161103557829003601f168201915b50505091835250506001919091015463ffffffff16602090910152905090565b60016020526000908152604090205460ff8082169161010081049091169062010000900461ffff1683565b60606110a7611263565b6001600160a01b03166110b8610c61565b6001600160a01b031614611101576040805162461bcd60e51b815260206004820181905260248201526000805160206118ef833981519152604482015290519081900360640190fd5b600280548060200260200160405190810160405280929190818152602001828054801561115757602002820191906000526020600020905b81546001600160a01b03168152600190910190602001808311611139575b5050505050905090565b611169611263565b6001600160a01b031661117a610c61565b6001600160a01b0316146111c3576040805162461bcd60e51b815260206004820181905260248201526000805160206118ef833981519152604482015290519081900360640190fd5b6001600160a01b0381166112085760405162461bcd60e51b81526004018080602001828103825260268152602001806118a96026913960400191505060405180910390fd5b600080546040516001600160a01b03808516939216917f8be0079c531659141344cd1fd0a4f28419497f9722a3daafe3b4186f6b6457e091a3600080546001600160a01b0319166001600160a01b0392909216919091179055565b3390565b60408051808201909152606081526000602082015290565b828054600181600116156101000203166002900490600052602060002090601f0160209004810192826112b557600085556112fb565b82601f106112ce57805160ff19168380011785556112fb565b828001600101855582156112fb579182015b828111156112fb5782518255916020019190600101906112e0565b5061130792915061130b565b5090565b5b80821115611307576000815560010161130c565b600060208284031215611331578081fd5b81356001600160a01b0381168114611347578182fd5b9392505050565b60006020808385031215611360578182fd5b823567ffffffffffffffff80821115611377578384fd5b818501915085601f83011261138a578384fd5b81358181111561139657fe5b604051601f8201601f19168101850183811182821017156113b357fe5b60405281815283820185018810156113c9578586fd5b818585018683013790810190930193909352509392505050565b6000602082840312156113f4578081fd5b813561ffff81168114611347578182fd5b600060208284031215611416578081fd5b5035919050565b6006811061142757fe5b9052565b60008151808452815b8181101561145057602081850181015186830182015201611434565b818111156114615782602083870101525b50601f01601f19169290920160200192915050565b600081516040845261148b604085018261142b565b60209384015163ffffffff16949093019390935250919050565b6001600160a01b0391909116815260200190565b6001600160a01b0392909216825261ffff16602082015260400190565b6020808252825182820181905260009190848201906040850190845b818110156115175783516001600160a01b0316835292840192918401916001016114f2565b50909695505050505050565b6000602080830181845280855180835260408601915060408482028701019250838701855b8281101561157657603f19888603018452611564858351611476565b94509285019290850190600101611548565b5092979650505050505050565b9215158352901515602083015261ffff16604082015260600190565b602081016115ad828461141d565b92915050565b604081016115c1828561141d565b611347602083018461141d565b6000604082526115e1604083018561142b565b905063ffffffff831660208301529392505050565b6020808252601b908201527f54686520766f746572206973206e6f7420726567697374657265640000000000604082015260600190565b60208082526036908201526000805160206118cf83398151915260408201527508189948159bdd1a5b99d4d95cdcda5bdb915b99195960521b606082015260800190565b602080825260409082018190526000805160206118cf833981519152908201527f2062652050726f706f73616c73526567697374726174696f6e53746172746564606082015260800190565b60208082526035908201526000805160206118cf833981519152604082015274206265205265676973746572696e67566f7465727360581b606082015260800190565b60208082526022908201527f54686973206164647265737320697320616c7265616479207265676973746572604082015261195960f21b606082015260800190565b602080825260149082015273526573756c74206973206e6f742072656164792160601b604082015260600190565b60208082526038908201526000805160206118cf83398151915260408201527f20626520566f74696e6753657373696f6e537461727465640000000000000000606082015260800190565b6020808252601b908201527f54686520766f7465722068617320616c726561647920766f7465640000000000604082015260600190565b60208082526029908201527f616464726573732069732020302120506c6561736520636865636b2061646472604082015268195cdcc81a5b9c1d5d60ba1b606082015260800190565b6020808252603e908201526000805160206118cf83398151915260408201527f2062652050726f706f73616c73526567697374726174696f6e456e6465640000606082015260800190565b6000602082526113476020830184611476565b61ffff9190911681526020019056fe4f776e61626c653a206e6577206f776e657220697320746865207a65726f206164647265737354686520737461747573206973206e6f7420636f7272656374203a204d7573744f776e61626c653a2063616c6c6572206973206e6f7420746865206f776e65720a97a4ee45751e2abf3e4fc8946939630b11b371ea8ae39ccdc3056e98f5cc3fa26469706673582212205e181d23e6bae5818055b46b3e2655d851bb442733ba19b10647fc3e4422036864736f6c63430007040033",
  "immutableReferences": {},
  "source": "//SPDX-License-Identifier: UNLICENSED\npragma solidity ^0.7.4;\npragma experimental ABIEncoderV2;\n\nimport \"@openzeppelin/contracts/access/Ownable.sol\";\n\n/**\n * @title Voting contract\n * @author Mohamed Jeremy Cedric\n */\ncontract Voting is Ownable {\n    enum WorkflowStatus {\n        RegisteringVoters,\n        ProposalsRegistrationStarted,\n        ProposalsRegistrationEnded,\n        VotingSessionStarted,\n        VotingSessionEnded,\n        VotesTallied\n    }\n\n    struct Voter {\n        bool isRegistered;\n        bool hasVoted;\n        uint16 votedProposalId;\n    }\n\n    struct Proposal {\n        string description;\n        uint32 voteCount;\n    }\n\n    mapping(address => Voter) public _voterlist;\n    address[] public _votersAddress;\n\n    Proposal[] public _proposallist;\n    WorkflowStatus public _workflow;\n\n    uint16 public proposalId = 0;\n    uint16 private _winningProposalId;\n\n    event VoterRegistered(address voterAddress);\n    event ProposalsRegistrationStarted();\n    event ProposalsRegistrationEnded();\n    event ProposalRegistered(uint16 proposalId);\n    event VotingSessionStarted();\n    event VotingSessionEnded();\n    event Voted(address voter, uint16 proposalId);\n    event VotesTallied();\n    event WorkflowStatusChange(\n        WorkflowStatus previousStatus,\n        WorkflowStatus newStatus\n    );\n\n    /**\n     * @dev Register voter in the mapping _voterlist\n     * @param _address Voter address\n     */\n    function RegisterVoter(address _address) public onlyOwner {\n        require(\n            _workflow == WorkflowStatus.RegisteringVoters,\n            \"The status is not correct : Must be RegisteringVoters\"\n        );\n        require(\n            _address != address(0),\n            \"address is  0! Please check address input\"\n        );\n        require(\n            _voterlist[_address].isRegistered == false,\n            \"This address is already registered\"\n        );\n        _voterlist[_address].isRegistered = true;\n        _votersAddress.push(_address);\n        emit VoterRegistered(_address);\n    }\n\n    function getVotersAddress()\n        public\n        view\n        onlyOwner\n        returns (address[] memory)\n    {\n        return _votersAddress;\n    }\n\n    function getProposalList() public view returns (Proposal[] memory) {\n        return _proposallist;\n    }\n\n    /**\n     * @dev Register a new proposal\n     * @param _description The proposal description\n     */\n    function RegisterProposal(string memory _description) public {\n        require(\n            _workflow == WorkflowStatus.ProposalsRegistrationStarted,\n            \"The status is not correct : Must be ProposalsRegistrationStarted\"\n        );\n        _proposallist.push(Proposal(_description, 0));\n        proposalId++;\n        emit ProposalRegistered(proposalId);\n    }\n\n    /**\n     * @dev Add a vote in favor of this _proposalId\n     * @param _proposalId Proposal identifier\n     */\n    function AddVote(uint16 _proposalId) public {\n        require(\n            _workflow == WorkflowStatus.VotingSessionStarted,\n            \"The status is not correct : Must be VotingSessionStarted\"\n        );\n        require(\n            _voterlist[msg.sender].isRegistered == true,\n            \"The voter is not registered\"\n        );\n        require(\n            _voterlist[msg.sender].hasVoted == false,\n            \"The voter has already voted\"\n        );\n        _proposallist[_proposalId].voteCount++;\n\n        _voterlist[msg.sender].votedProposalId = _proposalId;\n        _voterlist[msg.sender].hasVoted = true;\n\n        emit Voted(msg.sender, _proposalId);\n    }\n\n    /**\n     * @dev Get the winning proposal\n     * We take the the first one in the list in case of equality\n     * Set _winningProposalId with the index of winning _proposallist\n     */\n    function WinningProposal() public onlyOwner {\n        uint32 _winningVoteCount = 0;\n\n        require(\n            _workflow == WorkflowStatus.VotingSessionEnded,\n            \"The status is not correct : Must be VotingSessionEnded\"\n        );\n        for (uint16 i = 0; i < _proposallist.length; i++) {\n            if (_proposallist[i].voteCount > _winningVoteCount) {\n                _winningVoteCount = _proposallist[i].voteCount;\n                _winningProposalId = i;\n            }\n        }\n\n        _workflow = WorkflowStatus.VotesTallied;\n        emit WorkflowStatusChange(\n            WorkflowStatus.VotingSessionEnded,\n            WorkflowStatus.VotesTallied\n        );\n        emit VotesTallied();\n    }\n\n    /**\n     * @dev Get proposal winner information\n     * @return _proposallist[_winningProposalId] Proposal proposal\n     */\n    function Winner() public view returns (Proposal memory) {\n        require(\n            _workflow == WorkflowStatus.VotesTallied,\n            \"Result is not ready!\"\n        );\n        return _proposallist[_winningProposalId];\n    }\n\n    /**\n     * @dev Get proposal by id\n     * @return Proposal proposal\n     */\n    function GetProposal(uint16 _proposalId)\n        public\n        view\n        returns (Proposal memory)\n    {\n        return _proposallist[_proposalId];\n    }\n\n    /**\n     * @dev Start proposal period\n     */\n    function ProposalStart() public onlyOwner {\n        require(\n            _workflow == WorkflowStatus.RegisteringVoters,\n            \"The status is not correct : Must be RegisteringVoters\"\n        );\n        _workflow = WorkflowStatus.ProposalsRegistrationStarted;\n\n        emit WorkflowStatusChange(\n            WorkflowStatus.RegisteringVoters,\n            WorkflowStatus.ProposalsRegistrationStarted\n        );\n        emit ProposalsRegistrationStarted();\n    }\n\n    /**\n     * @dev End proposal period\n     */\n    function ProposalEnd() public onlyOwner {\n        require(\n            _workflow == WorkflowStatus.ProposalsRegistrationStarted,\n            \"The status is not correct : Must be VotingSessionEnded\"\n        );\n        _workflow = WorkflowStatus.ProposalsRegistrationEnded;\n        emit WorkflowStatusChange(\n            WorkflowStatus.ProposalsRegistrationStarted,\n            WorkflowStatus.ProposalsRegistrationEnded\n        );\n        emit ProposalsRegistrationEnded();\n    }\n\n    /**\n     * @dev Start vote period\n     */\n    function VoteStart() public onlyOwner {\n        require(\n            _workflow == WorkflowStatus.ProposalsRegistrationEnded,\n            \"The status is not correct : Must be ProposalsRegistrationEnded\"\n        );\n        _workflow = WorkflowStatus.VotingSessionStarted;\n        emit WorkflowStatusChange(\n            WorkflowStatus.ProposalsRegistrationEnded,\n            WorkflowStatus.VotingSessionStarted\n        );\n        emit VotingSessionStarted();\n    }\n\n    /**\n     * @dev End vote period\n     */\n    function VoteEnd() public onlyOwner {\n        require(\n            _workflow == WorkflowStatus.VotingSessionStarted,\n            \"The status is not correct : Must be VotingSessionEnded\"\n        );\n        _workflow = WorkflowStatus.VotingSessionEnded;\n        emit WorkflowStatusChange(\n            WorkflowStatus.VotingSessionStarted,\n            WorkflowStatus.VotingSessionEnded\n        );\n        emit VotingSessionEnded();\n    }\n}\n",
  "sourcePath": "/Users/magnec/Sites/alyra/voting/contracts/Voting.sol",
  "compiler": {
    "name": "solc",
    "version": "0.7.4+commit.3f05b770.Emscripten.clang"
  },
  "schemaVersion": "3.3.4",
  "updatedAt": "2021-03-21T09:39:59.775Z",
  "networkType": "ethereum",
  "devdoc": {
    "author": "Mohamed Jeremy Cedric",
    "kind": "dev",
    "methods": {
      "AddVote(uint16)": {
        "details": "Add a vote in favor of this _proposalId",
        "params": {
          "_proposalId": "Proposal identifier"
        }
      },
      "GetProposal(uint16)": {
        "details": "Get proposal by id",
        "returns": {
          "_0": "Proposal proposal"
        }
      },
      "ProposalEnd()": {
        "details": "End proposal period"
      },
      "ProposalStart()": {
        "details": "Start proposal period"
      },
      "RegisterProposal(string)": {
        "details": "Register a new proposal",
        "params": {
          "_description": "The proposal description"
        }
      },
      "RegisterVoter(address)": {
        "details": "Register voter in the mapping _voterlist",
        "params": {
          "_address": "Voter address"
        }
      },
      "VoteEnd()": {
        "details": "End vote period"
      },
      "VoteStart()": {
        "details": "Start vote period"
      },
      "Winner()": {
        "details": "Get proposal winner information",
        "returns": {
          "_0": "_proposallist[_winningProposalId] Proposal proposal"
        }
      },
      "WinningProposal()": {
        "details": "Get the winning proposal We take the the first one in the list in case of equality Set _winningProposalId with the index of winning _proposallist"
      },
      "owner()": {
        "details": "Returns the address of the current owner."
      },
      "renounceOwnership()": {
        "details": "Leaves the contract without owner. It will not be possible to call `onlyOwner` functions anymore. Can only be called by the current owner. NOTE: Renouncing ownership will leave the contract without an owner, thereby removing any functionality that is only available to the owner."
      },
      "transferOwnership(address)": {
        "details": "Transfers ownership of the contract to a new account (`newOwner`). Can only be called by the current owner."
      }
    },
    "title": "Voting contract",
    "version": 1
  },
  "userdoc": {
    "kind": "user",
    "methods": {},
    "version": 1
  }
}