{
  "contractName": "Voting",
  "abi": [
    {
      "anonymous": false,
      "inputs": [
        {
          "indexed": true,
          "internalType": "address",
          "name": "previousOwner",
          "type": "address"
        },
        {
          "indexed": true,
          "internalType": "address",
          "name": "newOwner",
          "type": "address"
        }
      ],
      "name": "OwnershipTransferred",
      "type": "event"
    },
    {
      "anonymous": false,
      "inputs": [
        {
          "indexed": false,
          "internalType": "uint16",
          "name": "proposalId",
          "type": "uint16"
        }
      ],
      "name": "ProposalRegistered",
      "type": "event"
    },
    {
      "anonymous": false,
      "inputs": [],
      "name": "ProposalsRegistrationEnded",
      "type": "event"
    },
    {
      "anonymous": false,
      "inputs": [],
      "name": "ProposalsRegistrationStarted",
      "type": "event"
    },
    {
      "anonymous": false,
      "inputs": [
        {
          "indexed": false,
          "internalType": "address",
          "name": "voter",
          "type": "address"
        },
        {
          "indexed": false,
          "internalType": "uint16",
          "name": "proposalId",
          "type": "uint16"
        }
      ],
      "name": "Voted",
      "type": "event"
    },
    {
      "anonymous": false,
      "inputs": [
        {
          "indexed": false,
          "internalType": "address",
          "name": "voterAddress",
          "type": "address"
        }
      ],
      "name": "VoterRegistered",
      "type": "event"
    },
    {
      "anonymous": false,
      "inputs": [],
      "name": "VotesTallied",
      "type": "event"
    },
    {
      "anonymous": false,
      "inputs": [],
      "name": "VotingSessionEnded",
      "type": "event"
    },
    {
      "anonymous": false,
      "inputs": [],
      "name": "VotingSessionStarted",
      "type": "event"
    },
    {
      "anonymous": false,
      "inputs": [
        {
          "indexed": false,
          "internalType": "enum Voting.WorkflowStatus",
          "name": "previousStatus",
          "type": "uint8"
        },
        {
          "indexed": false,
          "internalType": "enum Voting.WorkflowStatus",
          "name": "newStatus",
          "type": "uint8"
        }
      ],
      "name": "WorkflowStatusChange",
      "type": "event"
    },
    {
      "inputs": [
        {
          "internalType": "uint256",
          "name": "",
          "type": "uint256"
        }
      ],
      "name": "_proposallist",
      "outputs": [
        {
          "internalType": "string",
          "name": "description",
          "type": "string"
        },
        {
          "internalType": "uint32",
          "name": "voteCount",
          "type": "uint32"
        }
      ],
      "stateMutability": "view",
      "type": "function",
      "constant": true
    },
    {
      "inputs": [
        {
          "internalType": "address",
          "name": "",
          "type": "address"
        }
      ],
      "name": "_voterlist",
      "outputs": [
        {
          "internalType": "bool",
          "name": "isRegistered",
          "type": "bool"
        },
        {
          "internalType": "bool",
          "name": "hasVoted",
          "type": "bool"
        },
        {
          "internalType": "uint16",
          "name": "votedProposalId",
          "type": "uint16"
        }
      ],
      "stateMutability": "view",
      "type": "function",
      "constant": true
    },
    {
      "inputs": [
        {
          "internalType": "uint256",
          "name": "",
          "type": "uint256"
        }
      ],
      "name": "_votersAddress",
      "outputs": [
        {
          "internalType": "address",
          "name": "",
          "type": "address"
        }
      ],
      "stateMutability": "view",
      "type": "function",
      "constant": true
    },
    {
      "inputs": [],
      "name": "_workflow",
      "outputs": [
        {
          "internalType": "enum Voting.WorkflowStatus",
          "name": "",
          "type": "uint8"
        }
      ],
      "stateMutability": "view",
      "type": "function",
      "constant": true
    },
    {
      "inputs": [],
      "name": "owner",
      "outputs": [
        {
          "internalType": "address",
          "name": "",
          "type": "address"
        }
      ],
      "stateMutability": "view",
      "type": "function",
      "constant": true
    },
    {
      "inputs": [],
      "name": "proposalId",
      "outputs": [
        {
          "internalType": "uint16",
          "name": "",
          "type": "uint16"
        }
      ],
      "stateMutability": "view",
      "type": "function",
      "constant": true
    },
    {
      "inputs": [],
      "name": "renounceOwnership",
      "outputs": [],
      "stateMutability": "nonpayable",
      "type": "function"
    },
    {
      "inputs": [
        {
          "internalType": "address",
          "name": "newOwner",
          "type": "address"
        }
      ],
      "name": "transferOwnership",
      "outputs": [],
      "stateMutability": "nonpayable",
      "type": "function"
    },
    {
      "inputs": [
        {
          "internalType": "address",
          "name": "_address",
          "type": "address"
        }
      ],
      "name": "RegisterVoter",
      "outputs": [],
      "stateMutability": "nonpayable",
      "type": "function"
    },
    {
      "inputs": [],
      "name": "getVotersAddress",
      "outputs": [
        {
          "internalType": "address[]",
          "name": "",
          "type": "address[]"
        }
      ],
      "stateMutability": "view",
      "type": "function",
      "constant": true
    },
    {
      "inputs": [
        {
          "internalType": "string",
          "name": "_description",
          "type": "string"
        }
      ],
      "name": "RegisterProposal",
      "outputs": [],
      "stateMutability": "nonpayable",
      "type": "function"
    },
    {
      "inputs": [
        {
          "internalType": "uint16",
          "name": "_proposalId",
          "type": "uint16"
        }
      ],
      "name": "AddVote",
      "outputs": [],
      "stateMutability": "nonpayable",
      "type": "function"
    },
    {
      "inputs": [],
      "name": "WinningProposal",
      "outputs": [],
      "stateMutability": "nonpayable",
      "type": "function"
    },
    {
      "inputs": [],
      "name": "Winner",
      "outputs": [
        {
          "components": [
            {
              "internalType": "string",
              "name": "description",
              "type": "string"
            },
            {
              "internalType": "uint32",
              "name": "voteCount",
              "type": "uint32"
            }
          ],
          "internalType": "struct Voting.Proposal",
          "name": "",
          "type": "tuple"
        }
      ],
      "stateMutability": "view",
      "type": "function",
      "constant": true
    },
    {
      "inputs": [
        {
          "internalType": "uint16",
          "name": "_proposalId",
          "type": "uint16"
        }
      ],
      "name": "GetProposal",
      "outputs": [
        {
          "components": [
            {
              "internalType": "string",
              "name": "description",
              "type": "string"
            },
            {
              "internalType": "uint32",
              "name": "voteCount",
              "type": "uint32"
            }
          ],
          "internalType": "struct Voting.Proposal",
          "name": "",
          "type": "tuple"
        }
      ],
      "stateMutability": "view",
      "type": "function",
      "constant": true
    },
    {
      "inputs": [],
      "name": "ProposalStart",
      "outputs": [],
      "stateMutability": "nonpayable",
      "type": "function"
    },
    {
      "inputs": [],
      "name": "ProposalEnd",
      "outputs": [],
      "stateMutability": "nonpayable",
      "type": "function"
    },
    {
      "inputs": [],
      "name": "VoteStart",
      "outputs": [],
      "stateMutability": "nonpayable",
      "type": "function"
    },
    {
      "inputs": [],
      "name": "VoteEnd",
      "outputs": [],
      "stateMutability": "nonpayable",
      "type": "function"
    }
  ],
  "bytecode": "0x60806040526004805462ffff001916905534801561001c57600080fd5b506000610027610076565b600080546001600160a01b0319166001600160a01b0383169081178255604051929350917f8be0079c531659141344cd1fd0a4f28419497f9722a3daafe3b4186f6b6457e0908290a35061007a565b3390565b61177f806100896000396000f3fe608060405234801561001057600080fd5b50600436106101215760003560e01c8063715018a6116100ad578063b1a9d2f811610071578063b1a9d2f81461021a578063b2b98ed21461022d578063bfdbc35614610235578063e19f154114610257578063f2fde38b1461026c57610121565b8063715018a6146101f25780637efaf425146101fa5780638da5cb5b146102025780639ab8b3d11461020a5780639ee1ed7e1461021257610121565b80632dfca445116100f45780632dfca4451461017f57806337320ee6146101945780634c9aa9901461019c5780636bc8e452146101bd5780636e64a97c146101d257610121565b806315fe6f1b146101265780631a2cd7361461013b5780631e1404281461014e578063282cca2514610156575b600080fd5b6101396101343660046111a5565b61027f565b005b610139610149366004611268565b610417565b61013961054f565b610169610164366004611268565b610644565b604051610176919061167c565b60405180910390f35b61018761071b565b60405161017691906116b4565b61013961072a565b6101af6101aa36600461128a565b61081f565b6040516101769291906113c4565b6101c56108db565b6040516101769190611395565b6101e56101e036600461128a565b6108e4565b60405161017691906112fb565b61013961090e565b6101396109ba565b6101e5610b48565b610139610b57565b610139610c4c565b6101396102283660046111d3565b610d3d565b610169610e47565b6102486102433660046111a5565b610f59565b60405161017693929190611379565b61025f610f84565b604051610176919061132c565b61013961027a3660046111a5565b610fe6565b6102876110e8565b6001600160a01b0316610298610b48565b6001600160a01b0316146102e1576040805162461bcd60e51b8152602060048201819052602482015260008051602061170a833981519152604482015290519081900360640190fd5b600060045460ff1660058111156102f457fe5b1461031a5760405162461bcd60e51b8152600401610311906114b3565b60405180910390fd5b6001600160a01b0381166103405760405162461bcd60e51b8152600401610311906115e8565b6001600160a01b03811660009081526001602052604090205460ff16156103795760405162461bcd60e51b8152600401610311906114f6565b6001600160a01b0381166000818152600160208190526040808320805460ff1916831790556002805492830181559092527f405787fa12a823e0f2b7631cc41b3ba8828b3321ca811111fa75cd3aa3bb5ace0180546001600160a01b031916909217909155517fb6be2187d059cc2a55fe29e0e503b566e1e0f8c8780096e185429350acffd3dd9061040c9083906112fb565b60405180910390a150565b600360045460ff16600581111561042a57fe5b146104475760405162461bcd60e51b815260040161031190611566565b3360009081526001602081905260409091205460ff1615151461047c5760405162461bcd60e51b8152600401610311906113ec565b33600090815260016020526040902054610100900460ff16156104b15760405162461bcd60e51b8152600401610311906115b1565b60038161ffff16815481106104c257fe5b6000918252602080832060016002909302018201805463ffffffff80821685011663ffffffff1990911617905533808452919052604091829020805461ff001961ffff8616620100000263ffff000019909216919091171661010017905590517f2941e36a18e27644e8ea10bad396659ac866fd7a18a75015d088fc148e24d8549161040c91849061130f565b6105576110e8565b6001600160a01b0316610568610b48565b6001600160a01b0316146105b1576040805162461bcd60e51b8152602060048201819052602482015260008051602061170a833981519152604482015290519081900360640190fd5b600260045460ff1660058111156105c457fe5b146105e15760405162461bcd60e51b815260040161031190611631565b6004805460ff1916600390811790915560405160008051602061172a8339815191529161061191600291906113a9565b60405180910390a16040517f1b8e19a458c1bcd88553332c518cc5c4e2d5793e712ee766d4f1c14f672ef1f590600090a1565b61064c6110ec565b60038261ffff168154811061065d57fe5b60009182526020918290206040805160029384029092018054600181161561010002600019011693909304601f810185900490940282016060908101825290820184815291938492918491908401828280156106fa5780601f106106cf576101008083540402835291602001916106fa565b820191906000526020600020905b8154815290600101906020018083116106dd57829003601f168201915b50505091835250506001919091015463ffffffff1660209091015292915050565b600454610100900461ffff1681565b6107326110e8565b6001600160a01b0316610743610b48565b6001600160a01b03161461078c576040805162461bcd60e51b8152602060048201819052602482015260008051602061170a833981519152604482015290519081900360640190fd5b600160045460ff16600581111561079f57fe5b146107bc5760405162461bcd60e51b815260040161031190611423565b6004805460ff1916600290811790915560405160008051602061172a833981519152916107ec91600191906113a9565b60405180910390a16040517f240cb87b2e4df4c318e72bd714d45a9cad60249e883ff56b1fffd83a4595a8fa90600090a1565b6003818154811061082f57600080fd5b60009182526020918290206002918202018054604080516001831615610100026000190190921693909304601f8101859004850282018501909352828152909350918391908301828280156108c55780601f1061089a576101008083540402835291602001916108c5565b820191906000526020600020905b8154815290600101906020018083116108a857829003601f168201915b5050506001909301549192505063ffffffff1682565b60045460ff1681565b600281815481106108f457600080fd5b6000918252602090912001546001600160a01b0316905081565b6109166110e8565b6001600160a01b0316610927610b48565b6001600160a01b031614610970576040805162461bcd60e51b8152602060048201819052602482015260008051602061170a833981519152604482015290519081900360640190fd5b600080546040516001600160a01b03909116907f8be0079c531659141344cd1fd0a4f28419497f9722a3daafe3b4186f6b6457e0908390a3600080546001600160a01b0319169055565b6109c26110e8565b6001600160a01b03166109d3610b48565b6001600160a01b031614610a1c576040805162461bcd60e51b8152602060048201819052602482015260008051602061170a833981519152604482015290519081900360640190fd5b60006004805460ff166005811115610a3057fe5b14610a4d5760405162461bcd60e51b815260040161031190611423565b60005b60035461ffff82161015610ae6578163ffffffff1660038261ffff1681548110610a7657fe5b600091825260209091206001600290920201015463ffffffff161115610ade5760038161ffff1681548110610aa757fe5b60009182526020909120600290910201600101546004805464ffff0000001916630100000061ffff85160217905563ffffffff1691505b600101610a50565b506004805460ff19166005908117825560405160008051602061172a83398151915292610b149290916113a9565b60405180910390a16040517f0e5e95ff8725ab3e7a4b6b59998a4c344c2aa8d1485f5e60cb7f337768e6134790600090a150565b6000546001600160a01b031690565b610b5f6110e8565b6001600160a01b0316610b70610b48565b6001600160a01b031614610bb9576040805162461bcd60e51b8152602060048201819052602482015260008051602061170a833981519152604482015290519081900360640190fd5b600060045460ff166005811115610bcc57fe5b14610be95760405162461bcd60e51b8152600401610311906114b3565b6004805460ff1916600190811790915560405160008051602061172a83398151915291610c1991600091906113a9565b60405180910390a16040517f344c25562921d075a298d34b6dd1fd00d36ff293974539dfd4a8c625d9f0064c90600090a1565b610c546110e8565b6001600160a01b0316610c65610b48565b6001600160a01b031614610cae576040805162461bcd60e51b8152602060048201819052602482015260008051602061170a833981519152604482015290519081900360640190fd5b600360045460ff166005811115610cc157fe5b14610cde5760405162461bcd60e51b815260040161031190611423565b6004805460ff19168117815560405160008051602061172a83398151915291610d0a91600391906113a9565b60405180910390a16040517fc379d349a6301baf50fb2f98d829f4ae10b1cdb7c66f4e4d8117302df7b8cd4c90600090a1565b600160045460ff166005811115610d5057fe5b14610d6d5760405162461bcd60e51b815260040161031190611467565b60408051808201909152818152600060208083018290526003805460018101825592528251805160029093027fc2575a0e9e593c00f959f8c92f12db2869c3395a3b0502d05e2516446f71f85b0192610dc99284920190611104565b50602091909101516001918201805463ffffffff191663ffffffff9092169190911790556004805462ffff001981166101009182900461ffff9081169094018416820217918290556040517f3a4c611b68899d706a17379718e0e71bc4fbd91ba8e193b04e9876719d2d86039361040c9392909204909116906116b4565b610e4f6110ec565b600560045460ff166005811115610e6257fe5b14610e7f5760405162461bcd60e51b815260040161031190611538565b6004546003805490916301000000900461ffff16908110610e9c57fe5b60009182526020918290206040805160029384029092018054600181161561010002600019011693909304601f81018590049094028201606090810182529082018481529193849291849190840182828015610f395780601f10610f0e57610100808354040283529160200191610f39565b820191906000526020600020905b815481529060010190602001808311610f1c57829003601f168201915b50505091835250506001919091015463ffffffff16602090910152905090565b60016020526000908152604090205460ff8082169161010081049091169062010000900461ffff1683565b60606002805480602002602001604051908101604052809291908181526020018280548015610fdc57602002820191906000526020600020905b81546001600160a01b03168152600190910190602001808311610fbe575b5050505050905090565b610fee6110e8565b6001600160a01b0316610fff610b48565b6001600160a01b031614611048576040805162461bcd60e51b8152602060048201819052602482015260008051602061170a833981519152604482015290519081900360640190fd5b6001600160a01b03811661108d5760405162461bcd60e51b81526004018080602001828103825260268152602001806116c46026913960400191505060405180910390fd5b600080546040516001600160a01b03808516939216917f8be0079c531659141344cd1fd0a4f28419497f9722a3daafe3b4186f6b6457e091a3600080546001600160a01b0319166001600160a01b0392909216919091179055565b3390565b60408051808201909152606081526000602082015290565b828054600181600116156101000203166002900490600052602060002090601f01602090048101928261113a5760008555611180565b82601f1061115357805160ff1916838001178555611180565b82800160010185558215611180579182015b82811115611180578251825591602001919060010190611165565b5061118c929150611190565b5090565b5b8082111561118c5760008155600101611191565b6000602082840312156111b6578081fd5b81356001600160a01b03811681146111cc578182fd5b9392505050565b600060208083850312156111e5578182fd5b823567ffffffffffffffff808211156111fc578384fd5b818501915085601f83011261120f578384fd5b81358181111561121b57fe5b604051601f8201601f191681018501838111828210171561123857fe5b604052818152838201850188101561124e578586fd5b818585018683013790810190930193909352509392505050565b600060208284031215611279578081fd5b813561ffff811681146111cc578182fd5b60006020828403121561129b578081fd5b5035919050565b600681106112ac57fe5b9052565b60008151808452815b818110156112d5576020818501810151868301820152016112b9565b818111156112e65782602083870101525b50601f01601f19169290920160200192915050565b6001600160a01b0391909116815260200190565b6001600160a01b0392909216825261ffff16602082015260400190565b6020808252825182820181905260009190848201906040850190845b8181101561136d5783516001600160a01b031683529284019291840191600101611348565b50909695505050505050565b9215158352901515602083015261ffff16604082015260600190565b602081016113a382846112a2565b92915050565b604081016113b782856112a2565b6111cc60208301846112a2565b6000604082526113d760408301856112b0565b905063ffffffff831660208301529392505050565b6020808252601b908201527f54686520766f746572206973206e6f7420726567697374657265640000000000604082015260600190565b60208082526036908201526000805160206116ea83398151915260408201527508189948159bdd1a5b99d4d95cdcda5bdb915b99195960521b606082015260800190565b602080825260409082018190526000805160206116ea833981519152908201527f2062652050726f706f73616c73526567697374726174696f6e53746172746564606082015260800190565b60208082526035908201526000805160206116ea833981519152604082015274206265205265676973746572696e67566f7465727360581b606082015260800190565b60208082526022908201527f54686973206164647265737320697320616c7265616479207265676973746572604082015261195960f21b606082015260800190565b602080825260149082015273526573756c74206973206e6f742072656164792160601b604082015260600190565b60208082526038908201526000805160206116ea83398151915260408201527f20626520566f74696e6753657373696f6e537461727465640000000000000000606082015260800190565b6020808252601b908201527f54686520766f7465722068617320616c726561647920766f7465640000000000604082015260600190565b60208082526029908201527f616464726573732069732020302120506c6561736520636865636b2061646472604082015268195cdcc81a5b9c1d5d60ba1b606082015260800190565b6020808252603e908201526000805160206116ea83398151915260408201527f2062652050726f706f73616c73526567697374726174696f6e456e6465640000606082015260800190565b60006020825282516040602084015261169860608401826112b0565b905063ffffffff60208501511660408401528091505092915050565b61ffff9190911681526020019056fe4f776e61626c653a206e6577206f776e657220697320746865207a65726f206164647265737354686520737461747573206973206e6f7420636f7272656374203a204d7573744f776e61626c653a2063616c6c6572206973206e6f7420746865206f776e65720a97a4ee45751e2abf3e4fc8946939630b11b371ea8ae39ccdc3056e98f5cc3fa26469706673582212203c3dc4916b989ba2c065702497dcf134af28adc2c5fc7cc9666b87e9e0f08d1864736f6c63430007040033",
  "immutableReferences": {},
  "source": "//SPDX-License-Identifier: UNLICENSED\npragma solidity ^0.7.4;\npragma experimental ABIEncoderV2;\n\nimport \"@openzeppelin/contracts/access/Ownable.sol\";\n\n/**\n * @title Voting contract\n * @author Mohamed Jeremy Cedric\n */\ncontract Voting is Ownable {\n    enum WorkflowStatus {\n        RegisteringVoters,\n        ProposalsRegistrationStarted,\n        ProposalsRegistrationEnded,\n        VotingSessionStarted,\n        VotingSessionEnded,\n        VotesTallied\n    }\n\n    struct Voter {\n        bool isRegistered;\n        bool hasVoted;\n        uint16 votedProposalId;\n    }\n\n    struct Proposal {\n        string description;\n        uint32 voteCount;\n    }\n\n    mapping(address => Voter) public _voterlist;\n    address[] public _votersAddress;\n\n    Proposal[] public _proposallist;\n    WorkflowStatus public _workflow;\n\n    uint16 public proposalId = 0;\n    uint16 private _winningProposalId;\n\n    event VoterRegistered(address voterAddress);\n    event ProposalsRegistrationStarted();\n    event ProposalsRegistrationEnded();\n    event ProposalRegistered(uint16 proposalId);\n    event VotingSessionStarted();\n    event VotingSessionEnded();\n    event Voted(address voter, uint16 proposalId);\n    event VotesTallied();\n    event WorkflowStatusChange(\n        WorkflowStatus previousStatus,\n        WorkflowStatus newStatus\n    );\n\n    /**\n     * @dev Register voter in the mapping _voterlist\n     * @param _address Voter address\n     */\n    function RegisterVoter(address _address) public onlyOwner {\n        require(\n            _workflow == WorkflowStatus.RegisteringVoters,\n            \"The status is not correct : Must be RegisteringVoters\"\n        );\n        require(\n            _address != address(0),\n            \"address is  0! Please check address input\"\n        );\n        require(\n            _voterlist[_address].isRegistered == false,\n            \"This address is already registered\"\n        );\n        _voterlist[_address].isRegistered = true;\n        _votersAddress.push(_address);\n        emit VoterRegistered(_address);\n    }\n\n    function getVotersAddress() public view returns (address[] memory) {\n        return _votersAddress;\n    }\n\n    /**\n     * @dev Register a new proposal\n     * @param _description The proposal description\n     */\n    function RegisterProposal(string memory _description) public {\n        require(\n            _workflow == WorkflowStatus.ProposalsRegistrationStarted,\n            \"The status is not correct : Must be ProposalsRegistrationStarted\"\n        );\n        _proposallist.push(Proposal(_description, 0));\n        proposalId++;\n        emit ProposalRegistered(proposalId);\n    }\n\n    /**\n     * @dev Add a vote in favor of this _proposalId\n     * @param _proposalId Proposal identifier\n     */\n    function AddVote(uint16 _proposalId) public {\n        require(\n            _workflow == WorkflowStatus.VotingSessionStarted,\n            \"The status is not correct : Must be VotingSessionStarted\"\n        );\n        require(\n            _voterlist[msg.sender].isRegistered == true,\n            \"The voter is not registered\"\n        );\n        require(\n            _voterlist[msg.sender].hasVoted == false,\n            \"The voter has already voted\"\n        );\n        _proposallist[_proposalId].voteCount++;\n\n        _voterlist[msg.sender].votedProposalId = _proposalId;\n        _voterlist[msg.sender].hasVoted = true;\n\n        emit Voted(msg.sender, _proposalId);\n    }\n\n    /**\n     * @dev Get the winning proposal\n     * We take the the first one in the list in case of equality\n     * Set _winningProposalId with the index of winning _proposallist\n     */\n    function WinningProposal() public onlyOwner {\n        uint32 _winningVoteCount = 0;\n\n        require(\n            _workflow == WorkflowStatus.VotingSessionEnded,\n            \"The status is not correct : Must be VotingSessionEnded\"\n        );\n        for (uint16 i = 0; i < _proposallist.length; i++) {\n            if (_proposallist[i].voteCount > _winningVoteCount) {\n                _winningVoteCount = _proposallist[i].voteCount;\n                _winningProposalId = i;\n            }\n        }\n\n        _workflow = WorkflowStatus.VotesTallied;\n        emit WorkflowStatusChange(\n            WorkflowStatus.VotingSessionEnded,\n            WorkflowStatus.VotesTallied\n        );\n        emit VotesTallied();\n    }\n\n    /**\n     * @dev Get proposal winner information\n     * @return _proposallist[_winningProposalId] Proposal proposal\n     */\n    function Winner() public view returns (Proposal memory) {\n        require(\n            _workflow == WorkflowStatus.VotesTallied,\n            \"Result is not ready!\"\n        );\n        return _proposallist[_winningProposalId];\n    }\n\n    /**\n     * @dev Get proposal by id\n     * @return Proposal proposal\n     */\n    function GetProposal(uint16 _proposalId)\n        public\n        view\n        returns (Proposal memory)\n    {\n        return _proposallist[_proposalId];\n    }\n\n    /**\n     * @dev Start proposal period\n     */\n    function ProposalStart() public onlyOwner {\n        require(\n            _workflow == WorkflowStatus.RegisteringVoters,\n            \"The status is not correct : Must be RegisteringVoters\"\n        );\n        _workflow = WorkflowStatus.ProposalsRegistrationStarted;\n\n        emit WorkflowStatusChange(\n            WorkflowStatus.RegisteringVoters,\n            WorkflowStatus.ProposalsRegistrationStarted\n        );\n        emit ProposalsRegistrationStarted();\n    }\n\n    /**\n     * @dev End proposal period\n     */\n    function ProposalEnd() public onlyOwner {\n        require(\n            _workflow == WorkflowStatus.ProposalsRegistrationStarted,\n            \"The status is not correct : Must be VotingSessionEnded\"\n        );\n        _workflow = WorkflowStatus.ProposalsRegistrationEnded;\n        emit WorkflowStatusChange(\n            WorkflowStatus.ProposalsRegistrationStarted,\n            WorkflowStatus.ProposalsRegistrationEnded\n        );\n        emit ProposalsRegistrationEnded();\n    }\n\n    /**\n     * @dev Start vote period\n     */\n    function VoteStart() public onlyOwner {\n        require(\n            _workflow == WorkflowStatus.ProposalsRegistrationEnded,\n            \"The status is not correct : Must be ProposalsRegistrationEnded\"\n        );\n        _workflow = WorkflowStatus.VotingSessionStarted;\n        emit WorkflowStatusChange(\n            WorkflowStatus.ProposalsRegistrationEnded,\n            WorkflowStatus.VotingSessionStarted\n        );\n        emit VotingSessionStarted();\n    }\n\n    /**\n     * @dev End vote period\n     */\n    function VoteEnd() public onlyOwner {\n        require(\n            _workflow == WorkflowStatus.VotingSessionStarted,\n            \"The status is not correct : Must be VotingSessionEnded\"\n        );\n        _workflow = WorkflowStatus.VotingSessionEnded;\n        emit WorkflowStatusChange(\n            WorkflowStatus.VotingSessionStarted,\n            WorkflowStatus.VotingSessionEnded\n        );\n        emit VotingSessionEnded();\n    }\n}\n",
  "sourcePath": "/Users/magnec/Sites/alyra/voting/contracts/Voting.sol",
  "compiler": {
    "name": "solc",
    "version": "0.7.4+commit.3f05b770.Emscripten.clang"
  },
  "schemaVersion": "3.3.4",
  "updatedAt": "2021-03-21T01:54:30.240Z",
  "networkType": "ethereum",
  "devdoc": {
    "author": "Mohamed Jeremy Cedric",
    "kind": "dev",
    "methods": {
      "AddVote(uint16)": {
        "details": "Add a vote in favor of this _proposalId",
        "params": {
          "_proposalId": "Proposal identifier"
        }
      },
      "GetProposal(uint16)": {
        "details": "Get proposal by id",
        "returns": {
          "_0": "Proposal proposal"
        }
      },
      "ProposalEnd()": {
        "details": "End proposal period"
      },
      "ProposalStart()": {
        "details": "Start proposal period"
      },
      "RegisterProposal(string)": {
        "details": "Register a new proposal",
        "params": {
          "_description": "The proposal description"
        }
      },
      "RegisterVoter(address)": {
        "details": "Register voter in the mapping _voterlist",
        "params": {
          "_address": "Voter address"
        }
      },
      "VoteEnd()": {
        "details": "End vote period"
      },
      "VoteStart()": {
        "details": "Start vote period"
      },
      "Winner()": {
        "details": "Get proposal winner information",
        "returns": {
          "_0": "_proposallist[_winningProposalId] Proposal proposal"
        }
      },
      "WinningProposal()": {
        "details": "Get the winning proposal We take the the first one in the list in case of equality Set _winningProposalId with the index of winning _proposallist"
      },
      "owner()": {
        "details": "Returns the address of the current owner."
      },
      "renounceOwnership()": {
        "details": "Leaves the contract without owner. It will not be possible to call `onlyOwner` functions anymore. Can only be called by the current owner. NOTE: Renouncing ownership will leave the contract without an owner, thereby removing any functionality that is only available to the owner."
      },
      "transferOwnership(address)": {
        "details": "Transfers ownership of the contract to a new account (`newOwner`). Can only be called by the current owner."
      }
    },
    "title": "Voting contract",
    "version": 1
  },
  "userdoc": {
    "kind": "user",
    "methods": {},
    "version": 1
  }
}